:100000000C942A000C9447000C9447000C94470071
:100010000C9447000C9447000C9447000C94B403D4
:100020000C9447000C9447000C9447000C94470034
:100030000C9447000C9447000C9447000C94470024
:100040000C9447000C9447000C9447000C94470014
:100050000C94470011241FBECFE5D8E0DEBFCDBF12
:1000600010E0A0E6B0E0E6E5F2E102C005900D92F6
:10007000A23EB107D9F720E0A2EEB0E001C01D9288
:10008000A43EB207E1F70E94DA030C9429090C940C
:10009000000087B1806487B986B1876086B986B170
:1000A000806886B9089597B1907F8F70892B87B942
:1000B0008AE18A95F1F700C086B1806486B93699E5
:1000C000FECF24B185B190E0982F8827822B089528
:1000D0009BB39F70282F207F922B9BBB9BB3977F56
:1000E0009BBB9BB394609BBB32E03A95F1F700C099
:1000F0009BB39B7F9BBBEFE8F1E03197F1F700C02A
:1001000000002BB3F0E18F9FC0011124922F9F704C
:10011000892B8BBB8BB384608BBB32E03A95F1F7B4
:1001200000C08BB38B7F8BBB8FE99FE00197F1F70A
:1001300000C0000008959BB39F70282F207F922B52
:100140009BBB9BB398609BBB9BB394609BBB32E013
:100150003A95F1F700C09BB39B7F9BBBEFE8F1E0C2
:100160003197F1F700C000002BB3F0E18F9FC00181
:100170001124922F9F70892B8BBB8BB384608BBB18
:1001800032E03A95F1F700C08BB38B7F8BBB8FE9E0
:100190009FE00197F1F700C0000008958FEF8ABB40
:1001A0008FE39CE90197F1F700C0000082E00E9414
:1001B000680088E20E9468008CE00E94680086E087
:1001C0000E94680081E00E9468008FE99FE001972B
:1001D000F1F700C0000008950F931F93CF93DF93B2
:1001E0008C01C0E0D0E003C00E949B002196F80182
:1001F000EC0FFD1F80818111F7CFDF91CF911F910F
:100200000F910895CF93DF93EA01811108C0603107
:1002100030F4862F8F7080680E94680009C081309A
:1002200039F4603128F4862F8F70806C0E9468004A
:10023000CE010E94EC00DF91CF91089581E00E94F1
:1002400068008FE99FE00197F1F700C0000080E8A7
:100250000E946800089580EF81BB8FEF82BB82B35C
:100260008F7082BB000080B38F708093E2008F306C
:10027000B1F78FE39CE90197F1F700C0000080B36C
:100280008F708093E2008F30A1F39FEF29EF80E021
:10029000915020408040E1F700C0000080B38F7093
:1002A0008093E2008F3029F38FEE82BB000080B391
:1002B0008F708093E2008F3019F01092E30027C016
:1002C0008FED82BB000080B38F708093E2008F308F
:1002D00021F081E08093E3001AC08FEB82BB000025
:1002E00080B38F708093E2008F3021F082E08093A2
:1002F000E3000DC08FE782BB000080B38F70809356
:10030000E2008F3009F4A7CF83E08093E30080916F
:10031000E2008E3059F4E091E300F0E0EE0FFF1FB1
:10032000EE0FFF1FEB59FF4F808108958D3059F478
:10033000E091E300F0E0EE0FFF1FEE0FFF1FEB591F
:10034000FF4F818108958B3059F4E091E300F0E094
:10035000EE0FFF1FEE0FFF1FEB59FF4F8281089535
:10036000E091E300F0E0EE0FFF1FEE0FFF1FEB59EF
:10037000FF4F8381089585B3886085BB2FEF81EEA1
:1003800094E0215080409040E1F700C0000085B328
:10039000877F85BB2FEF81EE94E021508040904015
:1003A000E1F700C00000089545E750E060E080E01C
:1003B0000E94020142E850E060E081E00E940201F8
:1003C000089560E670E00E94360621E0892B09F06E
:1003D00020E0822F90E00895EF92FF920F931F93F9
:1003E000CF93DF93CDB7DEB769970FB6F894DEBF32
:1003F0000FBECDBF0E941E0140E950E060E080E0EA
:100400000E94020100E010E033C00E942B01E1E0F5
:10041000F0E0EC0FFD1FE00FF11F80831F928F9320
:100420008CE990E09F938F937E0126E0E20EF11C11
:10043000FF92EF920E943F06A701602F81E00E9489
:1004400002018FEF91EE24E0815090402040E1F7CF
:1004500000C000004FE950E0602F81E00E940201DF
:100460000F5F1F4F0F900F900F900F900F900F90F6
:100470000430110554F21D82CE0101960E94E10163
:10048000892BE1F00E941E0141EA50E060E080E02B
:100490000E94020185B3826085BB8FEF94E32CE05C
:1004A000815090402040E1F700C000000E941E01F2
:1004B0000E94D40185B38D7F85BB0EC00E941E01B2
:1004C0004DEA50E060E080E00E9402010E94BB0122
:1004D0000E941E010E94D40169960FB6F894DEBFF7
:1004E0000FBECDBFDF91CF911F910F91FF90EF9085
:1004F0000895EF92FF920F931F93CF93DF93CDB7A1
:10050000DEB769970FB6F894DEBF0FBECDBF0E946D
:100510001E014CEB50E060E080E00E94020100E030
:1005200010E033C00E942B01E1E0F0E0EC0FFD1F72
:10053000E00FF11F80831F928F938CE990E09F93CF
:100540008F937E0126E0E20EF11CFF92EF920E9453
:100550003F06A701602F81E00E9402018FEF91EE1C
:1005600024E0815090402040E1F700C000004FE9B6
:1005700050E0602F81E00E9402010F5F1F4F0F903B
:100580000F900F900F900F900F900430110554F2C0
:100590001D82CE0101960E94E101892B09F456C00B
:1005A0000E941E0146EC50E060E080E00E940201E3
:1005B00000E010E030C00E942B01F801E05AFF4F2C
:1005C00080831F928F938CE990E09F938F937E019D
:1005D00086E0E80EF11CFF92EF920E943F06A70111
:1005E000602F81E00E9402019FEF21EE84E0915094
:1005F00020408040E1F700C000004FE950E0602F4C
:1006000081E00E9402010F5F1F4F0F900F900F902B
:100610000F900F900F90043011056CF2109264004F
:100620000E941E0140ED50E060E080E00E94020167
:100630009FEF24E38CE0915020408040E1F700C020
:1006400000000E941E010E94D4010EC00E941E01E3
:100650004DEA50E060E080E00E9402010E94BB0190
:100660000E941E010E94D40169960FB6F894DEBF65
:100670000FBECDBFDF91CF911F910F91FF90EF90F3
:1006800008950E942B018B3219F40E94EC01089509
:100690008D3211F40E947902089580E090E00E946A
:1006A0005300BC01990F880B990B0E94140520E0A0
:1006B00030EC4FE754E40E946A0420E030E04AEF57
:1006C00053E40E94C9050E94DC046F31710524F0D7
:1006D00085B3846085BB089585B38B7F85BB089502
:1006E000CF92DF92EF92FF9281E090E00E94530060
:1006F000BC01990F880B990B0E9414059B01AC015A
:1007000060E070EC8FE794E40E946A0420E030E03F
:1007100040E85FE30E94F8039B01AC0160E070E4F5
:100720008CE196E40E946A046B017C0120E030E4D5
:100730004CE155E40E946504882324F485B381606C
:1007400085BB0DC020E030E44CE155E4C701B601A3
:100750000E94C40518161CF485B38E7F85BBFF90DC
:10076000EF90DF90CF9008951F920F920FB60F92E7
:1007700011242F933F934F935F936F937F938F93A6
:100780009F93AF93BF93EF93FF930E944D030E94FB
:100790007003FF91EF91BF91AF919F918F917F91E6
:1007A0006F915F914F913F912F910F900FBE0F90DE
:1007B0001F9018958FEF84BB0E94CE000E941E01EF
:1007C0000E9449008AB38C7F8ABB8BB383608BBB4A
:1007D0008EB585608EBD89B7806189BF89E09DE354
:1007E0009BBD8ABD78940E94D4010E944103FDCF35
:1007F0005058BB27AA270E9410040C948A050E9417
:100800007C0538F00E94830520F039F49F3F19F4ED
:1008100026F40C9479050EF4E095E7FB0C9473052F
:10082000E92F0E949B0558F3BA17620773078407E4
:10083000950720F079F4A6F50C94BD050EF4E0952B
:100840000B2EBA2FA02D0B01B90190010C01CA018A
:10085000A0011124FF27591B99F0593F50F4503E35
:1008600068F11A16F040A22F232F342F4427585F27
:10087000F3CF469537952795A795F0405395C9F73F
:100880007EF41F16BA0B620B730B840BBAF09150F7
:10089000A1F0FF0FBB1F661F771F881FC2F70EC096
:1008A000BA0F621F731F841F48F487957795679569
:1008B000B795F7959E3F08F0B0CF9395880F08F055
:1008C0009927EE0F9795879508950E944F0508F494
:1008D00081E008950E947E040C948A050E9483059D
:1008E00058F00E947C0540F029F45F3F29F00C94F9
:1008F000730551110C94BE050C9479050E949B055B
:1009000068F39923B1F3552391F3951B550BBB273E
:10091000AA2762177307840738F09F5F5F4F220F83
:10092000331F441FAA1FA9F335D00E2E3AF0E0E87A
:1009300032D091505040E695001CCAF72BD0FE2FC4
:1009400029D0660F771F881FBB1F26173707480758
:10095000AB07B0E809F0BB0B802DBF01FF27935810
:100960005F4F3AF09E3F510578F00C9473050C945C
:10097000BE055F3FE4F3983ED4F38695779567957F
:10098000B795F7959F5FC9F7880F911D9695879545
:1009900097F90895E1E0660F771F881FBB1F621764
:1009A00073078407BA0720F0621B730B840BBA0B22
:1009B000EE1F88F7E09508950E94E3046894B11152
:1009C0000C94BE0508950E94A30588F09F5798F0E7
:1009D000B92F9927B751B0F0E1F0660F771F881F44
:1009E000991F1AF0BA95C9F714C0B13091F00E945E
:1009F000BD05B1E008950C94BD05672F782F8827B9
:100A0000B85F39F0B93FCCF3869577956795B39584
:100A1000D9F73EF490958095709561957F4F8F4FF3
:100A20009F4F0895E89409C097FB3EF490958095F8
:100A3000709561957F4F8F4F9F4F9923A9F0F92FA4
:100A400096E9BB279395F695879577956795B79522
:100A5000F111F8CFFAF4BB0F11F460FF1BC06F5F08
:100A60007F4F8F4F9F4F16C0882311F096E911C01A
:100A7000772321F09EE8872F762F05C0662371F03B
:100A800096E8862F70E060E02AF09A95660F771F4F
:100A9000881FDAF7880F9695879597F90895990F2B
:100AA0000008550FAA0BE0E8FEEF16161706E80738
:100AB000F907C0F012161306E407F50798F0621B59
:100AC000730B840B950B39F40A2661F0232B242B2E
:100AD000252B21F408950A2609F4A140A6958FEF4D
:100AE000811D811D089597F99F6780E870E060E09F
:100AF00008959FEF80EC089500240A9416161706B7
:100B000018060906089500240A94121613061406FE
:100B100005060895092E0394000C11F4882352F061
:100B2000BB0F40F4BF2B11F460FF04C06F5F7F4F19
:100B30008F4F9F4F089557FD9058440F551F59F000
:100B40005F3F71F04795880F97FB991F61F09F3FBA
:100B500079F087950895121613061406551FF2CFE3
:100B60004695F1DF08C0161617061806991FF1CF33
:100B700086957105610508940895E894BB2766275A
:100B80007727CB0197F908950E944F0508F48FEF5E
:100B900008950E94DC050C948A050E947C0538F0BB
:100BA0000E94830520F0952311F00C9473050C949A
:100BB000790511240C94BE050E949B0570F3959F46
:100BC000C1F3950F50E0551F629FF001729FBB2744
:100BD000F00DB11D639FAA27F00DB11DAA1F649FE0
:100BE0006627B00DA11D661F829F2227B00DA11D93
:100BF000621F739FB00DA11D621F839FA00D611D19
:100C0000221F749F3327A00D611D231F849F600D39
:100C1000211D822F762F6A2F11249F5750409AF062
:100C2000F1F088234AF0EE0FFF1FBB1F661F771FEE
:100C3000881F91505040A9F79E3F510580F00C94B9
:100C400073050C94BE055F3FE4F3983ED4F386959C
:100C500077956795B795F795E7959F5FC1F7FE2B59
:100C6000880F911D9695879597F90895FB01DC01F2
:100C70008D91019080190110D9F3990B0895AEE080
:100C8000B0E0E5E4F6E00C9400090D891E8986E0E9
:100C90008C831A8309838FEF9FE79E838D83AE0138
:100CA000475E5F4F6F89788DCE0101960E94610685
:100CB000EF81F885E00FF11F10822E96E4E00C948E
:100CC0001C09ABE0B0E0E7E6F6E00C94F2086C013A
:100CD0007B018A01FC0117821682838181FFCCC1CE
:100CE000CE0101963C01F6019381F70193FD8591B8
:100CF00093FF81917F01882309F4BAC1853239F4C9
:100D000093FD859193FF81917F01853229F4B6018E
:100D100090E00E945808E7CF912C212C312CFFE164
:100D2000F315D8F08B3279F038F4803279F08332D1
:100D3000A1F4232D20611DC08D3261F0803369F450
:100D4000232D216016C0832D8260382EE32DE460B0
:100D50003E2E2AC0F32DF8601DC037FC2DC020EDBB
:100D6000280F2A3040F08E32B9F436FC81C1232D91
:100D70002064322E19C036FE06C08AE0989E200DEF
:100D80001124922E11C0EAE02E9E200D1124222E55
:100D9000F32DF0623F2E08C08C3621F4832D80683D
:100DA000382E02C0883641F4F70193FD859193FFF8
:100DB00081917F018111B3CF982F9F7D95549330FE
:100DC00028F40C5F1F4F9FE399830DC0833631F0E9
:100DD000833771F0833509F059C021C0F801808153
:100DE00089830E5F1F4F88248394912C530113C075
:100DF0002801F2E04F0E511CF801A080B18036FEB0
:100E000003C0692D70E002C06FEF7FEFC5010E9443
:100E10004D084C018201F32DFF773F2E16C02801AB
:100E200022E0420E511CF801A080B18036FE03C0C2
:100E3000692D70E002C06FEF7FEFC5010E9442088C
:100E40004C01F32DF0683F2E820133FC1BC0822D34
:100E500090E088169906B0F4B60180E290E00E9416
:100E600058082A94F4CFF50137FC859137FE81911B
:100E70005F01B60190E00E94580821102A9421E0F9
:100E8000821A91088114910471F7E8C0843611F038
:100E9000893641F5F80137FE07C060817181828192
:100EA00093810C5F1F4F08C060817181072E000C79
:100EB000880B990B0E5F1F4FF32DFF763F2E97FF88
:100EC00009C090958095709561957F4F8F4F9F4F8A
:100ED000F0683F2E2AE030E0A3010E949408882E9B
:100EE000861845C0853731F4232D2F7EB22E2AE097
:100EF00030E025C0932D997FB92E8F36C1F018F4BC
:100F0000883579F0B5C0803719F0883721F0B0C046
:100F1000E92FE061BE2EB4FE0DC0FB2DF460BF2EA4
:100F200009C034FE0AC0292F2660B22E06C028E070
:100F300030E005C020E130E002C020E132E0F801FD
:100F4000B7FE07C060817181828193810C5F1F4F62
:100F500006C06081718180E090E00E5F1F4FA301A9
:100F60000E949408882E8618FB2DFF773F2E36FEB0
:100F70000DC0232D2E7FA22E891458F434FE0BC0F1
:100F800032FC09C0832D8E7EA82E05C0B82CA32C60
:100F900003C0B82C01C0B92CA4FE0FC0FE01E80D9F
:100FA000F11D8081803321F49A2D997EA92E09C0EC
:100FB000A2FE06C0B394B39404C08A2D867809F0CB
:100FC000B394A3FC11C0A0FE06C0B21488F4280C90
:100FD000922C9B180EC0B21460F4B60180E290E02F
:100FE0000E945808B394F7CFB21418F42B1802C01B
:100FF000982C212CA4FE10C0B60180E390E00E9442
:101000005808A2FE17C0A1FC03C088E790E002C008
:1010100088E590E0B6010CC08A2D867859F0A1FED3
:1010200002C08BE201C080E2A7FC8DE2B60190E035
:101030000E945808891438F4B60180E390E00E94B9
:1010400058089A94F7CF8A94F301E80DF11D808136
:10105000B60190E00E9458088110F5CF222009F4D3
:1010600042CEB60180E290E00E9458082A94F6CF62
:10107000F6018681978102C08FEF9FEF2B96E2E108
:101080000C940E09FC010590615070400110D8F7D6
:10109000809590958E0F9F1F0895FC0161507040C0
:1010A00001900110D8F7809590958E0F9F1F08959D
:1010B0000F931F93CF93DF93FB01238121FD03C087
:1010C0008FEF9FEF2CC022FF16C0468157812481ED
:1010D00035814217530744F4A081B1819D012F5FF0
:1010E0003F4F318320838C93268137812F5F3F4F81
:1010F0003783268314C08B01EC01FB010084F1854A
:10110000E02D0995892BE1F6D80116968D919C91D9
:101110001797019617969C938E931697CE01DF91A1
:10112000CF911F910F910895FA01AA27283051F10C
:10113000203181F1E8946F936E7F6E5F7F4F8F4F08
:101140009F4FAF4FB1E03ED0B4E03CD0670F781F67
:10115000891F9A1FA11D680F791F8A1F911DA11D4C
:101160006A0F711D811D911DA11D20D009F4689485
:101170003F912AE0269F11243019305D3193DEF62D
:10118000CF010895462F4770405D4193B3E00FD0E3
:10119000C9F7F6CF462F4F70405D4A3318F0495DCE
:1011A00031FD4052419302D0A9F7EACFB4E0A695B1
:1011B0009795879577956795BA95C9F700976105D3
:1011C000710508959B01AC010A2E06945795479529
:1011D00037952795BA95C9F7620F731F841F951F1E
:1011E000A01D08952F923F924F925F926F927F922F
:1011F0008F929F92AF92BF92CF92DF92EF92FF9227
:101200000F931F93CF93DF93CDB7DEB7CA1BDB0BD2
:101210000FB6F894DEBF0FBECDBF09942A88398877
:1012200048885F846E847D848C849B84AA84B9847E
:10123000C884DF80EE80FD800C811B81AA81B9818A
:10124000CE0FD11D0FB6F894DEBF0FBECDBFED019E
:061250000895F894FFCFA1
:1012560031323334003738392F3435362A31323388
:101266002D20303D2B456E7465722070617373209E
:101276002B004368616E67652070617373202D00D3
:10128600456E74657220706173733A002563002A97
:1012960000446F6F72204F70656E656400496E631F
:1012A6006F72726563742070617373004F6C642093
:1012B600706173733A004E657720706173733A00FC
:1012C60050617373776F7264206368616E676564DB
:0212D600000016
:00000001FF
